:020000040800F2
:1000000000500020712F00084D29000855290008D4
:100010005D290008652900086D290008000000001E
:10002000000000000000000000000000752900082A
:1000300081290008000000008D2900089929000886
:10004000B92F0008B92F0008B92F0008B92F0008F0
:10005000B92F0008B92F0008B92F0008B92F0008E0
:10006000B92F0008B92F0008B92F0008B92F0008D0
:10007000B92F0008B92F0008B92F0008B92F0008C0
:10008000A5290008B92F0008B92F0008B92F0008CA
:10009000B92F0008B92F0008B92F0008B92F0008A0
:1000A000B92F0008B92F0008B92F0008B92F000890
:1000B000B92F0008B92F0008B92F0008B92F000880
:1000C000B92F0008B92F0008B92F0008B92F000870
:1000D000B92F0008B9290008CD290008B92F000858
:1000E000B92F0008B92F0008B92F00080000000040
:1000F0000000000000000000000000000000000000
:0C01000000000000000000005FF808F1A3
:1001100010B5054C237833B9044B13B10448AFF341
:1001200000800123237010BDF001002000000000BA
:100130002CEC000808B5034B1BB103490348AFF38F
:10014000008008BD00000000F40100202CEC000835
:10015000034613F8012B002AFBD1181A0138704707
:100160004FF0FF0C1CEAD0521EBF1CEAD15392EA9A
:100170000C0F93EA0C0F6FD01A4480EA010C400276
:1001800018BF5FEA41211ED04FF0006343EA5010D0
:1001900043EA5111A0FB01310CF00040B1F5000F12
:1001A0003EBF490041EAD3715B0040EA010062F1C1
:1001B0007F02FD2A1DD8B3F1004F40EBC25008BFAB
:1001C00020F00100704790F0000F0CF0004C08BFC9
:1001D00049024CEA502040EA51207F3AC2BFD2F196
:1001E000FF0340EAC250704740F400004FF00003A4
:1001F000013A5DDC12F1190FDCBF00F000407047DE
:10020000C2F10002410021FA02F1C2F1200200FA1B
:1002100002FC5FEA310040F1000053EA4C0308BFE2
:1002200020EADC70704792F0000F00F0004C02BF33
:10023000400010F4000F013AF9D040EA0C0093F0AE
:10024000000F01F0004C02BF490011F4000F013B08
:10025000F9D041EA0C018FE70CEAD15392EA0C0F76
:1002600018BF93EA0C0F0AD030F0004C18BF31F0E1
:10027000004CD8D180EA010000F00040704790F0B7
:10028000000F17BF90F0004F084691F0000F91F05B
:10029000004F14D092EA0C0F01D142020FD193EA21
:1002A0000C0F03D14B0218BF084608D180EA0100A9
:1002B00000F0004040F0FE4040F40000704740F085
:1002C000FE4040F44000704781F0004102E000BF72
:1002D00083F0004330B54FEA41044FEA430594EA06
:1002E000050F08BF90EA020F1FBF54EA000C55EA41
:1002F000020C7FEA645C7FEA655C00F0E2804FEA12
:100300005454D4EB5555B8BF6D420CDD2C4480EAF3
:10031000020281EA030382EA000083EA010180EA23
:10032000020281EA0303362D88BF30BD11F0004F71
:100330004FEA01314FF4801C4CEA113102D04042A7
:1003400061EB410113F0004F4FEA03334CEA1333E2
:1003500002D0524263EB430394EA050F00F0A780FA
:10036000A4F10104D5F1200E0DDB02FA0EFC22FAF5
:1003700005F2801841F1000103FA0EF2801843FAE9
:1003800005F359410EE0A5F120050EF1200E012ADA
:1003900003FA0EFC28BF4CF0020C43FA05F3C01818
:1003A00051EBE37101F0004507D54FF0000EDCF191
:1003B000000C7EEB00006EEB0101B1F5801F1BD33A
:1003C000B1F5001F0CD349085FEA30004FEA3C0C3E
:1003D00004F101044FEA445212F5800F80F09A8034
:1003E000BCF1004F08BF5FEA500C50F1000041EB38
:1003F000045141EA050130BD5FEA4C0C404141EB3C
:100400000101013C28BFB1F5801FE9D291F0000F36
:1004100004BF01460020B1FA81F308BF2033A3F1E5
:100420000B03B3F120020CDA0C3208DD02F1140CDC
:10043000C2F10C0201FA0CF021FA02F10CE002F117
:100440001402D8BFC2F1200C01FA02F120FA0CFC10
:10045000DCBF41EA0C019040E41AA2BF01EB045159
:10046000294330BD6FEA04041F3C1CDA0C340EDC57
:1004700004F11404C4F1200220FA04F001FA02F39A
:1004800040EA030021FA04F345EA030130BDC4F158
:100490000C04C4F1200220FA02F001FA04F340EA4D
:1004A0000300294630BD21FA04F0294630BD94F0FE
:1004B000000F83F4801306BF81F480110134013DE5
:1004C0004EE77FEA645C18BF7FEA655C29D094EA56
:1004D000050F08BF90EA020F05D054EA000C04BFD4
:1004E0001946104630BD91EA030F1EBF00210020BF
:1004F00030BD5FEA545C05D14000494128BF41F05E
:10050000004130BD14F580043CBF01F5801130BDC1
:1005100001F0004545F0FE4141F470014FF000004C
:1005200030BD7FEA645C1ABF194610467FEA655CFD
:100530001CBF0B46024650EA013406BF52EA03359F
:1005400091EA030F41F4002130BD00BF90F0000F8D
:1005500004BF0021704730B54FF4806404F13204C9
:100560004FF000054FF0000150E700BF90F0000F82
:1005700004BF0021704730B54FF4806404F13204A9
:1005800010F0004548BF40424FF000013EE700BF79
:1005900042004FEAE2014FEA31014FEA02701FBF09
:1005A00012F07F4393F07F4F81F06051704732F03B
:1005B0007F4208BF704793F07F4F04BF41F4002192
:1005C000704730B54FF4607401F0004521F00041F0
:1005D0001CE700BF50EA010208BF704730B54FF07A
:1005E00000050AE050EA010208BF704730B511F07B
:1005F000004502D5404261EB41014FF4806404F1B3
:1006000032045FEA915C3FF4D8AE4FF003025FEA38
:10061000DC0C18BF03325FEADC0C18BF033202EBBC
:10062000DC02C2F1200300FA03FC20FA02F001FA16
:1006300003FE40EA0E0021FA02F11444BDE600BFB9
:1006400070B54FF0FF0C4CF4E06C1CEA11541DBF68
:100650001CEA135594EA0C0F95EA0C0F00F0DEF833
:100660002C4481EA030621EA4C5123EA4C5350EA18
:10067000013518BF52EA033541F4801143F4801369
:1006800038D0A0FB02CE4FF00005E1FB02E506F0FA
:100690000042E0FB03E54FF00006E1FB03569CF04F
:1006A000000F18BF4EF0010EA4F1FF04B6F5007F55
:1006B00064F5407404D25FEA4E0E6D4146EB0606C7
:1006C00042EAC62141EA55514FEAC52040EA5E5050
:1006D0004FEACE2EB4F1FD0C88BFBCF5E06F1ED8FA
:1006E000BEF1004F08BF5FEA500E50F1000041EB31
:1006F000045170BD06F0004646EA010140EA0200DE
:1007000081EA0301B4EB5C04C2BFD4EB0C0541EAFF
:10071000045170BD41F480114FF0000E013C00F314
:10072000AB8014F1360FDEBF002001F0004170BD38
:10073000C4F10004203C35DA0C341BDC04F1140451
:10074000C4F1200500FA05F320FA04F001FA05F2DD
:1007500040EA020001F0004221F0004110EBD370AA
:1007600021FA04F642EB06015EEA430E08BF20EAD6
:10077000D37070BDC4F10C04C4F1200500FA04F379
:1007800020FA05F001FA04F240EA020001F000410B
:1007900010EBD37041F100015EEA430E08BF20EA7E
:1007A000D37070BDC4F1200500FA05F24EEA020EC6
:1007B00020FA04F301FA05F243EA020321FA04F0F5
:1007C00001F0004121FA04F220EA020000EBD370AC
:1007D0005EEA430E08BF20EAD37070BD94F0000FAC
:1007E0000FD101F00046400041EB010111F4801FE0
:1007F00008BF013CF7D041EA060195F0000F18BF91
:10080000704703F00046520043EB030313F4801FCC
:1008100008BF013DF7D043EA0603704794EA0C0F86
:100820000CEA135518BF95EA0C0F0CD050EA41069C
:1008300018BF52EA4306D1D181EA030101F0004119
:100840004FF0000070BD50EA410606BF1046194641
:1008500052EA430619D094EA0C0F02D150EA01364D
:1008600013D195EA0C0F05D152EA03361CBF10468E
:1008700019460AD181EA030101F0004141F0FE412D
:1008800041F470014FF0000070BD41F0FE4141F4B1
:10089000780170BD70B54FF0FF0C4CF4E06C1CEAB1
:1008A00011541DBF1CEA135594EA0C0F95EA0C0F66
:1008B00000F0A7F8A4EB050481EA030E52EA033521
:1008C0004FEA013100F088804FEA03334FF0805542
:1008D00045EA131343EA12634FEA022245EA11156F
:1008E00045EA10654FEA00260EF000419D4208BF20
:1008F000964244F1FD0404F5407402D25B084FEACD
:100900003202B61A65EB03055B084FEA32024FF478
:1009100080104FF4002CB6EB020E75EB030E22BFD5
:10092000B61A754640EA0C005B084FEA3202B6EB95
:10093000020E75EB030E22BFB61A754640EA5C0044
:100940005B084FEA3202B6EB020E75EB030E22BFD4
:10095000B61A754640EA9C005B084FEA3202B6EBD5
:10096000020E75EB030E22BFB61A754640EADC0094
:1009700055EA060E18D04FEA051545EA16754FEAF6
:1009800006164FEAC30343EA52734FEAC2025FEA14
:100990001C1CC0D111F4801F0BD141EA00014FF0A3
:1009A00000004FF0004CB6E711F4801F04BF014374
:1009B0000020B4F1FD0C88BFBCF5E06F3FF6AFAE90
:1009C000B5EB030C04BFB6EB020C5FEA500C50F120
:1009D000000041EB045170BD0EF0004E4EEA1131A3
:1009E00014EB5C04C2BFD4EB0C0541EA045170BDAA
:1009F00041F480114FF0000E013C90E645EA060EEE
:100A00008DE60CEA135594EA0C0F08BF95EA0C0F1B
:100A10003FF43BAF94EA0C0F0AD150EA01347FF463
:100A200034AF95EA0C0F7FF425AF104619462CE73A
:100A300095EA0C0F06D152EA03353FF4FDAE10469D
:100A4000194622E750EA410618BF52EA43067FF4EE
:100A5000C5AE50EA41047FF40DAF52EA43057FF47E
:100A6000EBAE12E74FF0FF3C06E000BF4FF0010C89
:100A700002E000BF4FF0010C4DF804CD4FEA410CED
:100A80007FEA6C5C4FEA430C18BF7FEA6C5C1BD0BA
:100A900001B050EA410C0CBF52EA430C91EA030F3B
:100AA00002BF90EA020F0020704710F1000F91EA98
:100AB000030F58BF994208BF90422CBFD8176FEA66
:100AC000E37040F0010070474FEA410C7FEA6C5C34
:100AD00002D150EA013C07D14FEA430C7FEA6C5C3B
:100AE000D6D152EA033CD3D05DF8040B704700BF67
:100AF0008446104662468C461946634600E000BFB5
:100B000001B5FFF7B7FF002848BF10F1000F01BD86
:100B10004DF808EDFFF7F4FF0CBF012000205DF851
:100B200008FB00BF4DF808EDFFF7EAFF34BF0120D6
:100B300000205DF808FB00BF4DF808EDFFF7E0FF6F
:100B400094BF012000205DF808FB00BF4DF808EDC0
:100B5000FFF7CEFF94BF012000205DF808FB00BF27
:100B60004DF808EDFFF7C4FF34BF012000205DF809
:100B700008FB00BF4FEA410C7FEA6C5C02D150EAEF
:100B8000013C0AD14FEA430C7FEA6C5C02D152EA85
:100B9000033C02D14FF0000070474FF00100704756
:100BA0004FEA410212F5001215D211D56FF4787395
:100BB000B3EB625212D94FEAC12343F0004343EA38
:100BC000505311F0004F23FA02F018BF4042704713
:100BD0004FF00000704750EA013005D111F000409D
:100BE00008BF6FF0004070474FF00000704700BF33
:100BF0004A0011D212F5001211D20DD56FF478739C
:100C0000B3EB62520ED44FEAC12343F0004343EAF0
:100C1000505323FA02F070474FF00000704750EA3B
:100C2000013002D14FF0FF3070474FF000007047A5
:100C30004FEA4102B2F1E04324BFB3F5001CDCF1FE
:100C4000FE5C0DD901F0004C4FEAC0024CEA507036
:100C5000B2F1004F40EB830008BF20F00100704765
:100C600011F0804F21D113F13872BCBF01F0004068
:100C7000704741F480114FEA5252C2F11802C2F19A
:100C8000200C10FA0CF320FA02F018BF40F001001B
:100C90004FEAC1234FEAD32303FA0CFC40EA0C00CD
:100CA00023FA02F34FEA4303CCE77FEA625307D10A
:100CB00050EA01331EBF4FF0FE4040F44000704741
:100CC00001F0004040F0FE4040F40000704700BFDB
:100CD00080F0004002E000BF81F0004142001FBFF1
:100CE0005FEA410392EA030F7FEA226C7FEA236CFA
:100CF0006AD04FEA1262D2EB1363C1BFD2184140EF
:100D000048404140B8BF5B42192B88BF704710F084
:100D1000004F40F4000020F07F4018BF404211F027
:100D2000004F41F4000121F07F4118BF494292EA8F
:100D3000030F3FD0A2F1010241FA03FC10EB0C00BB
:100D4000C3F1200301FA03F100F0004302D5494248
:100D500060EB4000B0F5000F13D3B0F1807F06D3F5
:100D600040084FEA310102F10102FE2A51D2B1F1ED
:100D7000004F40EBC25008BF20F0010040EA0300E2
:100D80007047490040EB0000013A28BFB0F5000F62
:100D9000EDD2B0FA80FCACF1080CB2EB0C0200FA18
:100DA0000CF0AABF00EBC25052421843BCBFD04067
:100DB0001843704792F0000F81F4000106BF80F4E1
:100DC00000000132013BB5E74FEA41037FEA226CA4
:100DD00018BF7FEA236C21D092EA030F04D092F06F
:100DE000000F08BF0846704790EA010F1CBF0020A3
:100DF000704712F07F4F04D1400028BF40F0004000
:100E0000704712F100723CBF00F50000704700F01F
:100E1000004343F0FE4040F4000070477FEA226246
:100E200016BF08467FEA23630146420206BF5FEA17
:100E3000412390EA010F40F4800070474FF0000317
:100E400004E000BF10F0004348BF40425FEA000CDE
:100E500008BF704743F0964301464FF000001CE086
:100E600050EA010208BF70474FF000030AE000BFDC
:100E700050EA010208BF704711F0004302D540421A
:100E800061EB41015FEA010C02BF8446014600208C
:100E900043F0B64308BFA3F18053A3F50003BCFAA7
:100EA0008CF2083AA3EBC25310DB01FA02FC634454
:100EB00000FA02FCC2F12002BCF1004F20FA02F25B
:100EC00043EB020008BF20F00100704702F120024E
:100ED00001FA02FCC2F1200250EA4C0021FA02F2AF
:100EE00043EB020008BF20EADC70704738B50022EF
:100EF000002304460D46FFF715FE28B92046294673
:100F0000BDE8384000F00AB8204605F1004100F085
:100F100005F8404261EB410138BD00BFD0B5002269
:100F20000B4B06460F46FFF78BFBFFF761FE0446AF
:100F3000FFF70CFB0022074BFFF782FB02460B4634
:100F400030463946FFF7C4F9FFF752FE2146D0BDBF
:100F50000000F03D0000F04180B592B000AF02F01B
:100F600085F878648A4B1B687A6CD31A632B40F23D
:100F70000A81874A7B6C1360864B1B680133854A64
:100F80001360854801F072F8034683F00103DBB279
:100F9000002B01D000F072FC804A7B6C13607F4B09
:100FA0001A229A807D4B04229A717C4B1422DA71AA
:100FB0007A4B0C221A72774B1B68794AA2FB0323E7
:100FC0009B09DBB21633DAB2744B5A72714B196853
:100FD000744BA3FB01235A0913461B019B1A9B0068
:100FE000CA1AD2B26D4B9A726C4B6B4A0C3392E8B0
:100FF000030083E80300694B01221A75674B012245
:101000005A75664B08229A75644B674A9A61614B20
:101010001B681846FFF712FF034664491846FFF79E
:101020009FF8034662491846FFF758FE03461846E4
:10103000FFF7AEFA02460B465849C1E90823554B63
:101040001B681846FFF7FAFE034658491846FFF793
:1010500087F8034657491846FFF740FE03461846EF
:10106000FFF796FA02460B464C49C1E90A23494B61
:101070001A68514BA3FB02131B09322101FB03F336
:10108000D31A1846FFF7DAFE03464C491846FFF715
:1010900025FE03461A46414B1A633E4B1B68464ADF
:1010A000A2FB03235909464BA3FB01239A081346CD
:1010B0009B001344CA1A1046FFF7C0FE03464FF0C8
:1010C0007F511846FFF70AFE03461A46334B5A6310
:1010D000304B1B68384AA2FB03235909394BA3FB49
:1010E00001235A081346DB001344CA1A1046FFF7BF
:1010F000A5FE034634491846FFF7F0FD03461A469D
:10110000264B9A63234B1A6813469B001A44D30854
:101110002E49A1FB03139B084FF4B47101FB03F3A9
:10112000D31A1846FFF78AFE03461C4AD3631B4BAB
:10113000012283F84020194B012283F84120174BEC
:10114000012283F84220134B19681D4BA3FB012396
:10115000DA0813469B0013445B00CA1A002A13D115
:101160000C4B1B68381D1A4A40210AF071FF3B1DC9
:101170001846FEF7EDFF03469AB2391D6423154861
:1011800004F0A1FD00E000BF4837BD4680BD00BFB0
:10119000C0020020C4020020B8020020700200201B
:1011A000B5814E1B8988888800002040ACC5273750
:1011B0007B14C8417B14F3421F85EB510000C841EA
:1011C000CDCCCCCC398EE33833333340176CC116D9
:1011D00048EC0008F40C002080B592B000AF034644
:1011E000FB712C4AFB791370FB79022B36D0022B52
:1011F0004CDC002B02D0012B18D047E0012000F07E
:10120000CFFA07F10803244A402118460AF020FFCC
:1012100007F108031846FEF79BFF03469AB207F151
:10122000080164231D4804F04EFD2FE0022000F069
:10123000B7FA07F108031A4A402118460AF008FFD6
:1012400007F108031846FEF783FF03469AB207F139
:1012500008016423114804F036FD17E0032000F074
:101260009FFA07F108030F4A402118460AF0F0FEE2
:1012700007F108031846FEF76BFF03469AB207F121
:1012800008016423054804F01EFD00BF00BF483775
:10129000BD4680BD0C02002068EC0008F40C002064
:1012A00080EC000898EC000880B582B000AF00F038
:1012B00065FA0346FB71FB79002B34D01F4B1B787A
:1012C000022B22D0022B35DC002B02D0012B0ED0BA
:1012D00030E0FB79012B03D10120FFF77DFF24E0F3
:1012E000FB79022B21D10220FFF776FF1DE0FB796D
:1012F000012B03D10220FFF76FFF18E0FB79022BCF
:1013000015D10020FFF768FF11E0FB79012B03D115
:101310000120FFF761FF0CE0FB79022B09D10020CF
:10132000FFF75AFF05E000BF04E000BF02E000BF86
:1013300000E000BF0837BD4680BD00BF0C020020A2
:1013400080B500AF164B93F84230002B26D0154BDA
:101350001B78012B03D0134B1B78022B0AD11048AA
:1013600001F0ACFD034683F00103DBB2002B01D09A
:1013700000F0AEFA0B4B1B78022B0AD1084801F0A3
:101380009DF8034683F00103DBB2002B01D000F08F
:1013900091FA034B002283F8422000E000BF80BD99
:1013A000700200200C020020F0B5D1B006AF00F0B2
:1013B00059FA00F06FF900F0EFFA6A4801F0CBFD3E
:1013C000694801F0BBFD00F049FE07F1C803674A18
:1013D000602118460AF03CFE07F1C8031846FEF7E4
:1013E000B7FE03469AB207F1C8016423604804F0CF
:1013F0006AFC07F1C003184600F038FE0346002BD4
:1014000026D0B7F8C03003F5FA6397F8C22097F8F2
:10141000C31097F8C400044697F8C500054697F82E
:10142000C600064638460496039502940191009240
:10143000504A80210AF00CFE3B461846FEF788FE13
:1014400003469AB239466423494804F03CFC10E054
:101450003B46494A602118460AF0FAFD3B461846C9
:10146000FEF776FE03469AB239466423404804F0FC
:101470002AFC00F071FE0346002B11D03B463F4A88
:10148000402118460AF0E4FD3B461846FEF760FE90
:1014900003469AB239466423354804F014FC12E03E
:1014A0003B46374A402118460AF0D2FD3B461846D3
:1014B000FEF74EFE03469AB2394664232C4804F0E8
:1014C00002FC00F0E9F92F4800F0D0FD0346002BA4
:1014D0002AD02C4800F074FE0346002B13D03B4664
:1014E000294A402118460AF0B3FD3B461846FEF74C
:1014F0002FFE03469AB2394664231D4804F0E3FBED
:1015000000F0D6FE10E03B46204A402118460AF083
:101510009FFD3B461846FEF71BFE03469AB239462E
:101520006423134804F0CFFB00F06AFA0020FFF7B1
:1015300053FE07F18003164A402118460AF088FD41
:1015400007F180031846FEF703FE03469AB207F13F
:1015500080016423064804F0B6FB00BF07F59677C8
:10156000BD46F0BD1002002070020020B4EC00085F
:10157000F40C0020DCEC000810ED000828ED000859
:1015800044ED0008B802002060ED00087CED000882
:101590009CED000880B584B000AF00F08BF800F03F
:1015A0000FF9FFF781FE344B1B685B68BB81BB8979
:1015B000C3F580737B81314B1B887A899A424ED068
:1015C0000023FB812D4B1B887A899A420FD92B4B24
:1015D0001B887A89D31AFB81284B1B881A46284B13
:1015E0001344FA89194627480AF087FE21E0234B65
:1015F0001B887A899A421CD2204B1B88C3F58073C2
:101600003B817B89FB801D4B1B881A461C4B134476
:101610003A8919461B480AF070FE3B89194A13445F
:10162000FA88174918460AF068FE3A89FB8813447D
:10163000FB81FB89002B0FD0FB89B3F5807F0BD892
:10164000FB891A460F4910480AF057FE0F4AFB89DA
:1016500013800F4B01221A70084A7B89138000F017
:10166000FFF900F03FFAFFF777FCFFF769FE00BFD4
:101670001037BD4680BD00BF840D0020C802002089
:10168000F4030020CC020020F4040020F405002024
:10169000F605002080B400AF044B00221A70044B02
:1016A00000221A7000BFBD4680BC7047CC030020EA
:1016B000CD03002080B582B000AF4FF40051284820
:1016C00002F012FA0346012B0CBF01230023DBB208
:1016D000FB7101F0CBFC3860224B1B78FA799A42FF
:1016E00005D0214A3B6813601E4AFB7913701E4BDC
:1016F0001B683A68D31A1D2B19D91C4B1B78FA7931
:101700009A4214D0194AFB791370184B1B78002B9E
:1017100006D1174A3B681360164B00221A7006E088
:10172000144B1B78002B02D1134B01221A700F4B64
:101730001B78002B10D10F4B1B78002B0CD10C4BBE
:101740001B683A68D31AB3F5FA6F05D30A4B022225
:101750001A70084B01221A7000BF0837BD4680BDC1
:101760000010014000000020D003002001000020F4
:10177000D4030020D8030020CD03002080B483B020
:1017800000AF064B1B78FB71044B00221A70FB79EB
:1017900018460C37BD4680BC704700BFCD03002003
:1017A00080B483B000AF0346FB71044AFB79137029
:1017B00000BF0C37BD4680BC704700BFCC03002083
:1017C00080B582B000AF01F051FC7860214B1B78EE
:1017D000032B35D801A252F823F000BFED17000803
:1017E000F917000817180008351800080022012111
:1017F000194802F090F929E07B68184AA2FB0323FC
:101800005B09DBB203F00103DBB21A460121124887
:1018100002F081F91AE07B68114AA2FB03239B09BD
:10182000DBB203F00103DBB21A4601210A4802F0E1
:1018300072F90BE001220121074802F06CF905E082
:1018400000220121044802F066F900BF00BF0837FA
:10185000BD4680BDCC030020000C0140D34D62107A
:101860001F85EB5180B500AF1822002102480AF015
:10187000A4FC00BF80BD00BFDC03002080B400AF2B
:10188000044B9B680133034A936000BFBD4680BC94
:10189000704700BFDC03002080B400AF044BDB685E
:1018A0000133034AD36000BFBD4680BC704700BF10
:1018B000DC03002080B400AF044B1B690133034AF2
:1018C000136100BFBD4680BC704700BFDC03002031
:1018D00080B400AF044B5B690133034A536100BF1E
:1018E000BD4680BC704700BFDC03002080B584B0DB
:1018F00000AF78600B467B807B68002B05D07B882F
:10190000002B02D07B887F2B01D900233EE0214BA6
:1019100093F84234072B01D9002337E01D4B93F88D
:1019200041341A4613461B011344DB00194A134481
:10193000FB6088220021F8680AF03FFCFB687A8887
:10194000796818460AF0D9FC7B88FA680021D154DE
:10195000FB687A88A3F8802001F088FB0246FB68C8
:10196000C3F884200B4B93F841340133DBB203F00E
:101970000703DAB2074B83F84124064B93F842344D
:101980000133DAB2034B83F842240123184610379F
:10199000BD4680BDFC07002080B500AF4FF48072CB
:1019A000002110480AF009FC4FF4807200210E4813
:1019B0000AF003FC4FF4007200210C480AF0FDFB12
:1019C00040F2444200210A480AF0F7FB094B00228A
:1019D0001A80094B00221A70084B00221A8000BF9F
:1019E00080BD00BFF4030020F4040020F8050020AF
:1019F000FC070020F4050020F6050020F807002071
:101A000080B598B000AF114B1B78002B1AD14FF462
:101A100080720F490F4804F0E1F90C4B01221A7053
:101A200038464FF480730C4A60210AF011FB3B46A4
:101A30001846FEF78DFB03469AB2394664230748E1
:101A400004F041F900BF6037BD4680BD400C002066
:101A5000F40300203C0D0020B4ED0008F40C00203D
:101A600080B500AF1A4B1B78DBB2002B2ED0194B80
:101A70001B881A46184B1B889BB21344B3F5007F92
:101A800008DB144B00221A804FF400720021134827
:101A90000AF093FB0F4B1B881A46104B13440E4A57
:101AA000128892B20E4918460AF027FC0A4B1B888E
:101AB0009AB2084B1B8813449AB2064B1A80064B05
:101AC00000221A80024B00221A7000E000BF80BD85
:101AD000F6050020F8070020F4050020F805002096
:101AE000F404002080B5A8B002AF0023A7F8963018
:101AF0000023A7F894300023A7F892300023A7F81A
:101B0000903076E0B7F89030694AD35C0A2B6BD1FD
:101B1000B7F894300133A7F89430B7F89020B7F8AD
:101B20009630D31A9BB20133A7F88430B7F88430CB
:101B3000022B54D93B1D8022002118460AF03DFBA0
:101B4000B7F884307F2B28BF7F23A7F88E30B7F8F3
:101B50009630574A9918B7F88E203B1D18460AF060
:101B6000CCFBB7F88E3098333B44002203F8942C1A
:101B70000CE0B7F88E30013B98333B44002203F869
:101B8000942CB7F88E30013BA7F88E30B7F88E3022
:101B9000002B11D0B7F88E30013B98333B4413F83B
:101BA000943C0D2BE5D0B7F88E30013B98333B4485
:101BB00013F8943C0A2BDCD0B7F88E30002B0ED0F3
:101BC0003B79242B0BD1B7F88E203B1D11461846CC
:101BD000FFF78CFEB7F892300133A7F89230B7F8D0
:101BE00090300133A7F89630B7F890300133A7F85A
:101BF0009030304B1B88B7F890209A4282D3B7F8C8
:101C00009430002B26D001F031FAC7F888002A4B17
:101C10001B68D7F88820D31A41F28732934219D92A
:101C2000254AD7F888301360B7F89420B7F8923077
:101C3000381D00931346214A80210AF009FA3B1D02
:101C40001846FEF785FA03469AB2391D64231C48EC
:101C500004F039F8B7F89630002B24D0154B1A88C9
:101C6000B7F89630D31AA7F88630B7F88630002B2D
:101C700009D0B7F896300E4A1344B7F886201946B3
:101C80000B480AF080FAB7F88630094A9818B7F876
:101C90008630C3F500731A4600210AF08EFA054A11
:101CA000B7F88630138000BF9837BD4680BD00BFAF
:101CB000F8050020F8070020440C0020FCED000887
:101CC000F40C002080B500AF01F078F900F013F8B3
:101CD00000F02CF900F00CF900F052F800F07EF85A
:101CE00000F0B2F800F0DAF804F0A0FFFFF75CFBB8
:101CF000FFF750FCFCE780B590B000AF07F1180388
:101D00002822002118460AF058FA3B1D00221A60CA
:101D10005A609A60DA601A610123BB614FF4803324
:101D2000FB6100233B620123BB6202237B634FF410
:101D30008033BB634FF4E013FB6307F118031846CD
:101D400002F036FF0346002B01D000F069F90F23A3
:101D50007B600223BB600023FB604FF480633B6128
:101D600000237B613B1D0221184603F0A3F90346C3
:101D7000002B01D000F054F900BF4037BD4680BDB4
:101D800080B500AF124B134A1A60114B124A5A60C9
:101D90000F4B00229A600E4B0022DA600C4B4FF47E
:101DA00080421A610A4B00225A61094B00229A6153
:101DB000074B0022DA61064B00221A62044801F048
:101DC000C3FE0346002B01D000F02AF900BF80BDFE
:101DD000480C002000540040A086010080B500AFF0
:101DE000174B184A1A60164B4FF482725A60144B04
:101DF00000229A60124B0022DA60114B00221A6115
:101E00000F4B00225A610E4B4FF400729A610C4B3B
:101E10002822DA610A4B00221A62094B00225A6218
:101E2000074B00229A62064B0A22DA62044803F04A
:101E3000CFFA0346002B01D000F0F2F800BF80BDBE
:101E40009C0C00200030014080B500AF114B124ABD
:101E50001A60104B4FF4E1325A600E4B00229A6028
:101E60000C4B0022DA600B4B00221A61094B0C224A
:101E70005A61084B00229A61064B0022DA6105483C
:101E800003F0D1FE0346002B01D000F0C9F800BFDB
:101E900080BD00BFF40C00200038014080B500AFC9
:101EA000114B124A1A60104B4FF416525A600E4BE7
:101EB00000229A600C4B0022DA600B4B00221A6160
:101EC000094B0C225A61084B00229A61064B0022F2
:101ED000DA61054803F0A7FE0346002B01D000F0AD
:101EE0009FF800BF80BD00BF3C0D002000440040B3
:101EF00080B582B000AF0C4B5B690B4A43F0010325
:101F00005361094B5B6903F001037B607B6800222E
:101F10000021102001F08BF9102001F0A4F900BF7E
:101F20000837BD4680BD00BF0010024080B588B0B4
:101F300000AF07F1100300221A605A609A60DA605D
:101F4000334B9B69324A43F010039361304B9B69DA
:101F500003F01003FB60FB682D4B9B692C4A43F098
:101F6000200393612A4B9B6903F02003BB60BB688D
:101F7000274B9B69264A43F004039361244B9B69DA
:101F800003F004037B607B68214B9B69204A43F08C
:101F9000080393611E4B9B6903F008033B603B6899
:101FA000002210211B4801F0B6FD002201211A4831
:101FB00001F0B1FD4FF400533B6100237B6101232D
:101FC000BB6107F110031946144801F009FC102306
:101FD0003B6101237B610023BB610323FB6107F1AC
:101FE000100319460B4801F0FBFB01233B61012361
:101FF0007B610023BB610223FB6107F110031946DB
:10200000054801F0EDFB00BF2037BD4680BD00BF95
:102010000010024000080140000C01400010014087
:1020200080B400AF72B600BF00BFFDE780B483B0DC
:1020300000AF0346FB71FB791B09DBB21A46920025
:1020400013445B00DAB2FB7903F00F03DBB21344F5
:10205000DBB218460C37BD4680BC704780B400AF79
:1020600001231846BD4680BC7047000080B586B08D
:1020700002AF78607B68002B01D1002365E000236C
:10208000FB7307F1080300221A60C3F8032007F16D
:102090000F02642300930123D0212E4801F098FE03
:1020A0000346002B01D000234FE007F10802642310
:1020B00000930723D021274801F088FF0346002B17
:1020C00001D0002341E03B7A03F07F03DBB21846E6
:1020D000FFF7ACFF03461A467B689A717B7A03F0E0
:1020E0007F03DBB21846FFF7A1FF03461A467B6861
:1020F0005A71BB7A03F03F03DBB21846FFF796FF35
:1021000003461A467B681A713B7B03F03F03DBB240
:102110001846FFF78BFF03461A467B68DA707B7B15
:1021200003F01F03DBB21846FFF780FF03461A4691
:102130007B689A70BB7B1846FFF778FF034603F570
:10214000FA639AB27B681A80012318461037BD469D
:1021500080BD00BF480C002080B59CB002AF0122BA
:102160001349144807F0CEF9034687F8673097F80B
:102170006730002B17D097F8672097F86730381D25
:10218000009313460C4A602109F062FF3B1D18467C
:10219000FDF7DEFF03469AB2391D6423074803F0BA
:1021A00092FD002300E0012318466837BD4680BD3C
:1021B000D0EE0008C80D0020D4EE0008F40C00207A
:1021C00080B59EB002AF78607B68002B01D1002300
:1021D0005CE07B689B781A467B68DB78009313464B
:1021E0002C4A40212C4809F033FF12222A492B485F
:1021F00007F0D0F9034687F86F3097F86F30002B5F
:1022000018D097F86F3007F10C000093224B244A46
:10221000602109F01DFF07F10C031846FDF798FF38
:1022200003469AB207F10C0164231E4803F04BFDEC
:1022300000232BE0194BD3F80C321946174807F04E
:10224000ADFE034687F86F3097F86F30002B19D03A
:1022500097F86F3007F10C00134A602109F0F8FE7F
:1022600007F10C031846FDF773FF03469AB207F116
:102270000C0164230B4803F026FD084807F066FEB6
:10228000002303E0094B01221A700123184670371E
:10229000BD4680BD00EF000824120020F80F00208A
:1022A00010EF0008F40C002034EF00086412002046
:1022B00090B583B000AF1B4B1B78002B01D10023DE
:1022C0002CE0194BD3F80C32002B26D100237B6075
:1022D000164B1C68154B1B681846FDF739FF024664
:1022E0003B1D2146104807F0CAFB0346002B01D0D6
:1022F000002313E00D4B1B681846FDF729FF02462B
:102300007B689A4201D0002308E0074807F064FD8B
:102310000346002B01D0002300E0012318460C37B0
:10232000BD4690BD64120020F80F0020040000207C
:102330002DE9F04FBDB020AF786639661346A7F897
:102340005E307B6E002B02D03B6E002B01D1002350
:10235000ACE0B7F85E607B6E1B68BB657B6E9B88EC
:102360007B657B6E9B793B657B6EDB79FB647B6E6B
:102370001B7ABB647B6E5B7A7B647B6E9B7A3B646F
:102380007B6E9B89FB637B6E9B7BBB637B6EDB7B86
:102390007B637B6E1B7C3B637B6E5B7CFB627B6E3B
:1023A0009B7CBB627B6E1B7D7B627B6E5B7D3B623D
:1023B0007B6E9B7DFB617B6E9B691846FEF7E8F8A0
:1023C000C7E904017B6ED3E90823C7E902237B6ECA
:1023D000D3E90A12C7E900127B6E1B6B1846FEF7A1
:1023E000D7F882468B467B6E5B6B1846FEF7D0F8BB
:1023F000804689467B6E9B6B1846FEF7C9F80446FB
:102400000D467B6EDB6B1846FEF7C2F87B6E93F8C9
:1024100040301A467B6E93F841301F931E92CDE9EF
:102420001C01CDE91A45CDE91889CDE916ABD7E9EC
:102430000012CDE91412D7E90223CDE91223D7E91E
:102440000423CDE91023FA690E923A6A0D927A6A52
:102450000C92BA6A0B92FA6A0A923A6B09927A6BF8
:102460000892BA6B0792FA6B06923A6C05927A6CF4
:102470000492BA6C0392FA6C02923A6D01927A6DF0
:102480000092BB6D0C4A3146386E09F0E1FDF866EA
:10249000FB6E002B06DDB7F85E30FA6E9A4201DA69
:1024A000012300E0002303F00103DBB21846743778
:1024B000BD46BDE8F08F00BF54EF000880B5D4B032
:1024C00000AF07F5A873A3F5A6731860424B1B78FD
:1024D000002B06D007F5A873A3F5A6731B68002B85
:1024E00001D1002373E007F5A873A3F582731846A2
:1024F0004FF480731A46002109F05FFE07F14C018A
:1025000007F5A873A3F5A6734FF480721868FFF758
:102510000FFF034683F00103DBB2002B01D0002341
:1025200055E007F5A873A3F5847300221A6007F13C
:102530004C031846FDF70CFE024607F1480307F16D
:102540004C01264807F09BFA034687F84F3197F86D
:102550004F31002B16D097F84F3107F10800204A71
:10256000402109F075FD07F108031846FDF7F0FD5D
:1025700003469AB207F1080164231A4803F0A3FB4B
:10258000002324E007F14C031846FDF7E1FD024665
:1025900007F5A873A3F584731B689A4201D0002342
:1025A00015E0114B1B6801330F4A13600E4B19687D
:1025B0000E4BA3FB01239A0813469B001344CA1A2F
:1025C000002A03D100F014F8034600E00123184666
:1025D00007F5A877BD4680BD64120020F80F0020E3
:1025E000C0EF0008F40C002068120020CDCCCCCC49
:1025F00080B592B000AF144B1B78002B01D10023A3
:102600001EE0124807F0E8FB034687F8473097F8CA
:102610004730002B13D097F84730381D0C4A402123
:1026200009F016FD3B1D1846FDF792FD03469AB2D0
:10263000391D6423074803F046FB002300E0012313
:1026400018464837BD4680BD64120020F80F0020B0
:10265000E0EF0008F40C002080B485B000AF154B0B
:102660009B69144A43F001039361124B9B6903F089
:102670000103BB60BB680F4BDB690E4A43F080531C
:10268000D3610C4BDB6903F080537B607B680A4BA2
:102690005B68FB60FB6823F0E063FB60FB6843F072
:1026A0000073FB60044AFB68536000BF1437BD46EB
:1026B00080BC7047001002400000014080B588B027
:1026C00000AF786007F1100300221A605A609A6028
:1026D000DA607B681B68154A934223D1144B9B69CF
:1026E000134A43F008039361114B9B6903F00803FD
:1026F000FB60FB68C0233B6112237B610323FB610A
:1027000007F1100319460B4801F06AF8084BDB6922
:10271000074A43F40013D361054BDB6903F400134C
:10272000BB60BB6800BF2037BD4680BD0054004081
:1027300000100240000C014080B588B000AF786006
:1027400007F1100300221A605A609A60DA607B6811
:102750001B681B4A93422FD11A4B9B69194A43F4B9
:1027600080539361174B9B6903F48053FB60FB68B4
:10277000144B9B69134A43F004039361114B9B690B
:1027800003F00403BB60BB68A0233B6102237B61B1
:102790000323FB6107F1100319460B4801F020F8F1
:1027A00040233B6100237B610023BB6107F11003E1
:1027B0001946054801F014F800BF2037BD4680BD1A
:1027C00000300140001002400008014080B58AB08E
:1027D00000AF786007F1180300221A605A609A600F
:1027E000DA607B681B68534A93423AD1524B9B692B
:1027F000514A43F4804393614F4B9B6903F48043F8
:102800007B617B694C4B9B694B4A43F004039361AA
:10281000494B9B6903F004033B613B694FF4007330
:10282000BB610223FB6103237B6207F11803194696
:10283000424800F0D5FF4FF48063BB610023FB6189
:1028400000233B6207F1180319463C4800F0C8FF1B
:1028500000220021252000F0EAFC252000F003FDE5
:1028600063E07B681B68364A93425ED1324BDB697A
:10287000314A43F40033D3612F4BDB6903F4003357
:10288000FB60FB682C4B9B692B4A43F0040393616C
:10289000294B9B6903F00403BB60BB680423BB6145
:1028A0000223FB6103237B6207F1180319462348C7
:1028B00000F096FF0823BB610023FB6100233B620D
:1028C00007F1180319461D4800F08AFF1D4B1E4AE8
:1028D0001A601C4B00225A601A4B00229A60194B56
:1028E0008022DA60174B00221A61164B00225A61CF
:1028F000144B20229A61134B4FF48052DA61114835
:1029000000F0CCFC0346002B01D0FFF789FB7B686D
:102910000C4ADA630B4A7B685362002200212620AE
:1029200000F085FC262000F09EFC00BF2837BD4645
:1029300080BD00BF00380140001002400008014087
:1029400000440040840D00206C00024080B400AFC1
:1029500000BFFDE780B400AF00BFFDE780B400AF6B
:1029600000BFFDE780B400AF00BFFDE780B400AF5B
:1029700000BFFDE780B400AF00BFBD4680BC70471C
:1029800080B400AF00BFBD4680BC704780B400AFCC
:1029900000BFBD4680BC704780B500AF00F054FB5F
:1029A00000BF80BD80B500AF024800F0E5FD00BF6C
:1029B00080BD00BF840D002080B500AF024803F049
:1029C00033FA00BF80BD00BFF40C002080B582B098
:1029D00000AF0F4B1B6801330D4A13600D4B1B6892
:1029E0001B687B607B6803F01003002B08D0094B49
:1029F0001B681B683B60074B1B685B683B603B6860
:102A0000044803F011FA00BF0837BD4680BD00BF7F
:102A10006C1200203C0D002080B400AF012318464A
:102A2000BD4680BC704780B582B000AF7860396029
:102A300009F028FC034616221A604FF0FF331846AF
:102A40000837BD4680BD80B582B000AF78604FF0DA
:102A5000FF317868FFF7E7FF00BFFDE780B586B07C
:102A600000AFF860B9607A6000237B610AE0AFF3E1
:102A700000800146BB685A1CBA60CAB21A707B69F2
:102A800001337B617A697B689A42F0DB7B68184688
:102A90001837BD4680BD80B586B000AFF860B9601C
:102AA0007A6000237B6109E0BB685A1CBA601B781E
:102AB0001846AFF300807B6901337B617A697B68DC
:102AC0009A42F1DB7B6818461837BD4680BD80B45A
:102AD00083B000AF78604FF0FF3318460C37BD4627
:102AE00080BC704780B483B000AF786039603B68C9
:102AF0004FF400525A60002318460C37BD4680BC84
:102B0000704780B483B000AF7860012318460C375B
:102B1000BD4680BC704780B485B000AFF860B96036
:102B20007A60002318461437BD4680BC7047000009
:102B300080B586B000AF7860144A154BD31A7B611C
:102B40007B693B61134B1B68002B02D1114B124A6E
:102B50001A60104B1A687B6813443A699A4207D28C
:102B600009F090FB03460C221A604FF0FF3309E096
:102B7000084B1B68FB60074B1A687B681344054AC7
:102B80001360FB6818461837BD4680BD0050002012
:102B900000040000701200200014002080B400AF78
:102BA00000BFBD4680BC704780B485B000AF786080
:102BB0000023FB737B68BB6007E0BB681A78FB7B74
:102BC0005340FB73BB680133BB60BB681B78002BB1
:102BD000F3D1FB7B18461437BD4680BC704700001C
:102BE0002DE9F04FF9B01EAF07F5B473A3F5867366
:102BF000186007F5B473A3F58873196007F5B4730B
:102C0000A3F589731A8007F5B473A3F586731B685F
:102C1000002B0DD007F5B473A3F588731B68002B48
:102C200006D007F5B473A3F589731B881F2B01D851
:102C3000002338E107F5B473A3F5847318464FF405
:102C400080731A46002109F0B8FA07F5B473A3F5AA
:102C500086731B681E6807F5B473A3F586731B683B
:102C60009B883B6507F5B473A3F586731B689B7956
:102C7000FB6407F5B473A3F586731B68DB79BB644B
:102C800007F5B473A3F586731B681B7A7B6407F59D
:102C9000B473A3F586731B685B7A3B6407F5B47362
:102CA000A3F586731B689B7AFB6307F5B473A3F5E2
:102CB00086731B689B89BB6307F5B473A3F58673A2
:102CC0001B689B7B7B6307F5B473A3F586731B6856
:102CD000DB7B3B6307F5B473A3F586731B681B7C32
:102CE000FB6207F5B473A3F586731B685B7CBB625C
:102CF00007F5B473A3F586731B689B7C7B6207F5AD
:102D0000B473A3F586731B681B7D3B6207F5B47330
:102D1000A3F586731B685B7DFB6107F5B473A3F5B0
:102D200086731B689B7DBB6107F5B473A3F586733F
:102D30001B689B691846FDF72BFCC7E9040107F5E2
:102D4000B473A3F586731B68D3E90823C7E902238C
:102D500007F5B473A3F586731B68D3E90A12C7E9B4
:102D6000001207F5B473A3F586731B681B6B184636
:102D7000FDF70EFC82468B4607F5B473A3F5867308
:102D80001B685B6B1846FDF703FC8046894607F518
:102D9000B473A3F586731B689B6B1846FDF7F8FBAD
:102DA00004460D4607F5B473A3F586731B68DB6B09
:102DB0001846FDF7EDFB02460B4607F16000CDE932
:102DC0001C23CDE91A45CDE91889CDE916ABD7E921
:102DD0000012CDE91412D7E90223CDE91223D7E975
:102DE0000423CDE91023BA690E92FA690D923A6A6A
:102DF0000C927A6A0B92BA6A0A92FA6A09923A6B50
:102E000008927A6B0792BA6B0692FA6B05923A6C4B
:102E100004927A6C0392BA6C0292FA6C01923B6D46
:102E200000933346234A4FF4807109F011F9C7F833
:102E30006401D7F86431002B03DDD7F86431FF2B30
:102E400001DD00232FE007F160031846FFF7ACFE19
:102E5000034687F8633107F5B473A3F589731988BE
:102E600097F8633107F1600207F5B470A0F5887038
:102E700000931346104A006809F0EAF8C7F86401A5
:102E8000D7F86431002B0ADD07F5B473A3F5897315
:102E90001B88D7F864219A4201DA012300E000235D
:102EA00003F00103DBB2184607F5B677BD46BDE86F
:102EB000F08F00BF00F0000868F0000880B5C2B0D5
:102EC00000AF07F58473A3F58273186007F5847368
:102ED000A3F5807318464FF480731A46002109F059
:102EE0006CF907F1080107F58473A3F582734FF4B9
:102EF00080721868FFF774FE034683F00103DBB2AB
:102F0000002B01D0002312E007F108031846FDF75B
:102F10001FF903469AB207F108016423064802F03C
:102F2000D2FE0346002B0CBF01230023DBB2184660
:102F300007F58477BD4680BDF40C002080B582B0D3
:102F400000AF786048220021786809F036F900BFA8
:102F50000837BD4680BD80B582B000AF7860602282
:102F60000021786809F029F900BF0837BD4680BD07
:102F7000FFF714FE0B480C490C4A002302E0D4581A
:102F8000C4500433C4188C42F9D3094A094C0023B5
:102F900001E013600432A242FBD309F079F9FEF795
:102FA00091FE704700000020F001002028F9000881
:102FB000F0010020FC130020FEE7000080B500AF08
:102FC000084B1B68074A43F010031360032000F00E
:102FD00023F90F2000F008F8FFF73EFB0023184606
:102FE00080BD00BF0020024080B582B000AF786095
:102FF000124B1A68124B1B7819464FF47A73B3FBC5
:10300000F1F3B2FBF3F3184600F03BF90346002B53
:1030100001D001230EE07B680F2B0AD800227968CB
:103020004FF0FF3000F003F9064A7B68136000237D
:1030300000E0012318460837BD4680BD0800002087
:10304000100000200C00002080B400AF054B1B785E
:103050001A46054B1B681344034A136000BFBD4664
:1030600080BC7047100000207412002080B400AFB4
:10307000024B1B681846BD4680BC70477412002086
:1030800080B485B000AF78607B6803F00703FB6015
:103090000C4BDB68BB60BA684FF6FF031340BB60A4
:1030A000FB681A02BB68134343F0BF6343F4003369
:1030B000BB60044ABB68D36000BF1437BD4680BC08
:1030C000704700BF00ED00E080B400AF044BDB6848
:1030D0001B0A03F007031846BD4680BC704700BFBB
:1030E00000ED00E080B483B000AF0346FB7197F9B8
:1030F0000730002B0BDBFB7903F01F02064997F921
:1031000007305B09012000FA02F241F8232000BFDA
:103110000C37BD4680BC704700E100E080B483B04E
:1031200000AF03463960FB7197F90730002B0ADBCB
:103130003B68DAB20C4997F907301201D2B20B445E
:1031400083F800230AE03B68DAB20849FB7903F010
:103150000F03043B1201D2B20B441A7600BF0C37A6
:10316000BD4680BC704700BF00E100E000ED00E01C
:1031700080B489B000AFF860B9607A60FB6803F092
:103180000703FB61FB69C3F10703042B28BF04237A
:10319000BB61FB690433062B02D9FB69033B00E0EA
:1031A00000237B614FF0FF32BB6902FA03F3DA437D
:1031B000BB681A407B699A404FF0FF317B6901FA86
:1031C00003F3D9437B680B40134318462437BD46AD
:1031D00080BC704780B582B000AF78607B68013BEF
:1031E000B3F1807F01D301230FE00A4A7B68013BE2
:1031F00053600F214FF0FF30FFF790FF054B002287
:103200009A60044B07221A60002318460837BD460F
:1032100080BD00BF10E000E080B582B000AF7860F4
:103220007868FFF72DFF00BF0837BD4680BD80B529
:1032300086B000AF0346B9607A60FB7300237B6100
:10324000FFF742FF78617A68B9687869FFF790FF05
:10325000024697F90F3011461846FFF75FFF00BF8F
:103260001837BD4680BD80B582B000AF0346FB7104
:1032700097F907301846FFF735FF00BF0837BD46FE
:1032800080BD80B582B000AF78607868FFF7A2FF9C
:10329000034618460837BD4680BD000080B485B09F
:1032A00000AF78600023FB607B68002B01D1012315
:1032B00043E07B681B681A46224B1344224AA2FB58
:1032C00003231B099A007B681A647B681F4ADA6330
:1032D0007B68022283F821207B681B681B68FB60E7
:1032E000FB6823F47F5323F03003FB607B685A684C
:1032F0007B689B681A437B68DB681A437B681B69A1
:103300001A437B685B691A437B689B691A437B6835
:10331000DB691343FA681343FB607B681B68FA6838
:103320001A607B6800229A637B68012283F821205F
:103330007B68002283F82020002318461437BD46FE
:1033400080BC7047F8FFFDBFCDCCCCCC0000024064
:1033500080B586B000AFF860B9607A603B6000234A
:10336000FB75FB6893F82030012B01D102234BE061
:10337000FB68012283F82020FB6893F82130DBB240
:10338000012B3AD1FB68022283F82120FB6800223E
:103390009A63FB681B681A68FB681B6822F00102CD
:1033A0001A603B687A68B968F86800F0EBF9FB6866
:1033B000DB6A002B08D0FB681B681A68FB681B6877
:1033C00042F00E021A600FE0FB681B681A68FB6887
:1033D0001B6822F004021A60FB681B681A68FB680D
:1033E0001B6842F00A021A60FB681B681A68FB68D7
:1033F0001B6842F001021A6005E0FB68002283F8B6
:1034000020200223FB75FB7D18461837BD4680BD82
:1034100080B485B000AF78600023FB737B6893F8BD
:103420002130DBB2022B08D07B6804229A637B68D0
:10343000002283F82020012320E07B681B681A68A3
:103440007B681B6822F00E021A607B681B681A6892
:103450007B681B6822F001021A607B681A6C7B682B
:10346000DB6B012101FA02F25A607B68012283F8CA
:1034700021207B68002283F82020FB7B184614372C
:10348000BD4680BC7047000080B584B000AF786056
:103490000023FB737B6893F82130DBB2022B05D04D
:1034A0007B6804229A630123FB7351E07B681B68ED
:1034B0001A687B681B6822F00E021A607B681B6822
:1034C0001A687B681B6822F001021A607B681B681F
:1034D000224A934229D07B681B68214A934222D01A
:1034E0007B681B681F4A93421AD07B681B681E4A80
:1034F000934212D07B681B681C4A93420AD07B68B7
:103500001B681B4A934202D14FF480130EE04FF028
:1035100080730BE04FF4803308E04FF4805305E0F4
:103520004FF4807302E0102300E00123114A53603E
:103530007B68012283F821207B68002283F8202009
:103540007B685B6B002B03D07B685B6B786898476C
:10355000FB7B18461037BD4680BD00BF0800024007
:103560001C0002403000024044000240580002406B
:103570006C0002400000024080B584B000AF78606B
:103580007B68DB6B1B68FB607B681B681B68BB6030
:103590007B681B6C04229A40FB681340002B4FD0C1
:1035A000BB6803F00403002B4AD07B681B681B68D0
:1035B00003F02003002B07D17B681B681A687B6827
:1035C0001B6822F004021A607B681B68664A9342FB
:1035D00029D07B681B68654A934222D07B681B68B0
:1035E000634A93421AD07B681B68624A934212D0A6
:1035F0007B681B68604A93420AD07B681B685F4AFD
:10360000934202D14FF480030EE04FF080630BE051
:103610004FF4802308E04FF4804305E04FF48063CB
:1036200002E0402300E00423554A53607B68DB6AD4
:10363000002B00F094807B68DB6A786898478EE006
:103640007B681B6C02229A40FB681340002B56D00B
:10365000BB6803F00203002B51D07B681B681B681A
:1036600003F02003002B0BD17B681B681A687B6872
:103670001B6822F00A021A607B68012283F821206D
:103680007B681B68384A934229D07B681B68374A9D
:10369000934222D07B681B68354A93421AD07B68DC
:1036A0001B68344A934212D07B681B68324A9342AB
:1036B0000AD07B681B68314A934202D14FF4001351
:1036C0000EE04FF000730BE04FF4003308E04FF4CE
:1036D000005305E04FF4007302E0202300E00223D2
:1036E000274A53607B68002283F820207B689B6A0E
:1036F000002B34D07B689B6A786898472FE07B6802
:103700001B6C08229A40FB681340002B28D0BB6832
:1037100003F00803002B23D07B681B681A687B68C2
:103720001B6822F00E021A607B681A6C7B68DB6BE8
:10373000012101FA02F25A607B6801229A637B68D8
:10374000012283F821207B68002283F820207B68F7
:103750001B6B002B04D07B681B6B7868984700BFFD
:1037600000BF1037BD4680BD080002401C0002406B
:103770003000024044000240580002406C00024009
:103780000000024080B485B000AFF860B9607A6094
:103790003B60FB681A6CFB68DB6B012101FA02F2EB
:1037A0005A60FB681B683A685A60FB685B68102BBC
:1037B00008D1FB681B687A689A60FB681B68BA6866
:1037C000DA6007E0FB681B68BA689A60FB681B68F0
:1037D0007A68DA6000BF1437BD4680BC70470000CD
:1037E00080B48BB000AF7860396000237B62002327
:1037F0003B6269E101227B6A02FA03F3FB613B68E9
:103800001B68FA691340BB61BA69FB699A4240F0D0
:1038100058813B685B689A4A93425ED0984A9342CB
:1038200075D8984A934258D0964A93426FD8964A90
:10383000934252D0944A934269D8944A93424CD0CE
:10384000924A934263D8924A934246D0904A934216
:103850005DD8122B2AD8122B59D801A252F823F086
:10386000DB380008B5380008C738000809390008F7
:103870000F3900080F3900080F3900080F39000808
:103880000F3900080F3900080F3900080F390008F8
:103890000F3900080F3900080F3900080F390008E8
:1038A0000F390008BD380008D1380008794A934222
:1038B00013D02CE03B68DB683B6229E03B68DB68A7
:1038C00004333B6224E03B68DB6808333B621FE063
:1038D0003B68DB680C333B621AE03B689B68002B5B
:1038E00002D104233B6213E03B689B68012B05D1A6
:1038F00008233B627B68FA691A6109E008233B628E
:103900007B68FA695A6103E000233B6200E000BF74
:10391000BB69FF2B01D87B6801E07B6804337B61C6
:10392000BB69FF2B02D87B6A9B0002E07B6A083BE5
:103930009B003B617B691A680F213B6901FA03F325
:10394000DB431A40396A3B6901FA03F31A437B6986
:103950001A603B685B6803F08053002B00F0B18075
:103960004D4B9B694C4A43F0010393614A4B9B6961
:1039700003F00103BB60BB68484A7B6A9B080233C3
:1039800052F82330FB607B6A03F003039B000F2295
:1039900002FA03F3DB43FA681340FB607B68404A9A
:1039A000934213D07B683F4A93420DD07B683E4AD6
:1039B000934207D07B683D4A934201D1032306E03E
:1039C000042304E0022302E0012300E000237A6ADA
:1039D00002F0030292009340FA681343FB602F4900
:1039E0007B6A9B080233FA6841F823203B685B68D6
:1039F00003F48013002B06D02D4B9A682C49BB6929
:103A000013438B6006E02A4B9A68BB69DB43284965
:103A100013408B603B685B6803F40013002B06D0F7
:103A2000234BDA682249BB691343CB6006E0204B85
:103A3000DA68BB69DB431E491340CB603B685B68B7
:103A400003F40033002B06D0194B5A681849BB69A0
:103A500013434B6006E0164B5A68BB69DB431449BD
:103A600013404B603B685B6803F48033002B21D02C
:103A70000F4B1A680E49BB6913430B6021E000BF6E
:103A80000000321000003110000022100000211050
:103A90000000121000001110001002400000014050
:103AA00000080140000C01400010014000140140DA
:103AB000000401400B4B1A68BB69DB430949134002
:103AC0000B607B6A01337B623B681A687B6A22FA6F
:103AD00003F3002B7FF48EAE00BF00BF2C37BD4632
:103AE00080BC70470004014080B485B000AF7860AE
:103AF0000B467B807B689A687B881340002B02D042
:103B00000123FB7301E00023FB73FB7B1846143792
:103B1000BD4680BC704780B483B000AF78600B4670
:103B20007B8013467B707B78002B03D07A887B6880
:103B30001A6103E07B881A047B681A6100BF0C37A6
:103B4000BD4680BC7047000080B584B000AF78608F
:103B50007B68002B01D101232BE17B6893F83D307A
:103B6000DBB2002B06D17B68002283F83C2078680A
:103B7000FEF7A4FD7B68242283F83D207B681B6848
:103B80001A687B681B6822F001021A607B681B6858
:103B90001A687B681B6842F400421A607B681B68E5
:103BA0001A687B681B6822F400421A6001F0CAFBA5
:103BB000F8607B685B68814A934207D8FB68804A5B
:103BC000934294BF01230023DBB206E0FB687D4AE9
:103BD000934294BF01230023DBB2002B01D00123C9
:103BE000E7E0FB68784AA2FB03239B0CBB607B6881
:103BF0001B685B6823F03F017B681B68BA680A4357
:103C00005A607B681B681B6A23F03F017B685B6816
:103C10006A4A934202D8BB68013309E0BB684FF49B
:103C2000967202FB03F3694AA2FB03239B0901334B
:103C30007A6812680B4313627B681B68DB6923F4A4
:103C40004F4222F0FF027B685B685C498B4219D8C7
:103C5000FB68591E7B685B685B00B1FBF3F3591C82
:103C600040F6FC730B40002B0AD0FB68591E7B68A2
:103C70005B685B00B1FBF3F30133C3F30B0351E06B
:103C800004234FE07B689B68002B11D1FB68581E12
:103C90007B6859680B465B000B44B0FBF3F30133C0
:103CA000C3F30B03002B0CBF01230023DBB212E094
:103CB000FB68581E7B6859680B469B000B449900B3
:103CC0000B44B0FBF3F30133C3F30B03002B0CBF26
:103CD00001230023DBB2002B01D0012322E07B680B
:103CE0009B68002B0ED1FB68581E7B6859680B46F9
:103CF0005B000B44B0FBF3F30133C3F30B0343F45A
:103D000000430FE0FB68581E7B6859680B469B0018
:103D10000B4499000B44B0FBF3F30133C3F30B03E3
:103D200043F44043796809681343CB617B681B689F
:103D30001B6823F0C0017B68DA697B681B6A1A4341
:103D40007B681B680A431A607B681B689B6823F4C6
:103D5000034323F0FF037A6811697A68D26811433C
:103D60007A6812680B4393607B681B68DB6823F0FA
:103D7000FF017B685A697B689B691A437B681B68F3
:103D80000A43DA607B681B681A687B681B6842F02C
:103D900001021A607B6800221A647B68202283F883
:103DA0003D207B6800221A637B68002283F83E2056
:103DB000002318461037BD4680BD00BFA086010015
:103DC0007F841E00FF083D0083DE1B43D34D62103D
:103DD00080B588B002AFF8607A601A460B467B81E6
:103DE00013463B81FFF742F97861FB6893F83D3059
:103DF000DBB2202B40F0E0807B6900931923012285
:103E00007049F86800F09EFC0346002B01D00223A5
:103E1000D3E0FB6893F83C30012B01D10223CCE0C6
:103E2000FB68012283F83C20FB681B681B6803F0D9
:103E30000103012B07D0FB681B681A68FB681B682D
:103E400042F001021A60FB681B681A68FB681B6875
:103E500022F400621A60FB68212283F83D20FB688F
:103E6000102283F83E20FB6800221A64FB687A68FF
:103E70005A62FB683A895A85FB685B8D9AB2FB6887
:103E80001A85FB68504ADA6279897B693A6AF86870
:103E900000F008FB0346002B01D001238DE0002336
:103EA0003B61FB681B685B693B61FB681B689B6946
:103EB0003B613B6966E07A69396AF86800F05CFD4D
:103EC0000346002B0DD0FB681B6C042B07D1FB684D
:103ED0001B681A68FB681B6842F400721A600123B1
:103EE0006BE0FB685B6A1A78FB681B681A61FB6809
:103EF0005B6A5A1CFB685A62FB685B8D9BB2013B94
:103F00009AB2FB685A85FB681B8D013B9AB2FB682D
:103F10001A85FB681B685B6903F00403042B1BD143
:103F2000FB681B8D002B17D0FB685B6A1A78FB6857
:103F30001B681A61FB685B6A5A1CFB685A62FB6863
:103F40005B8D9BB2013B9AB2FB685A85FB681B8D67
:103F5000013B9AB2FB681A857A69396AF86800F001
:103F600053FD0346002B0DD0FB681B6C042B07D1BF
:103F7000FB681B681A68FB681B6842F400721A60D1
:103F800001231AE0FB681B8D002B94D1FB681B6892
:103F90001A68FB681B6842F400721A60FB682022F2
:103FA00083F83D20FB68002283F83E20FB68002256
:103FB00083F83C20002300E0022318461837BD4652
:103FC00080BD00BF020010000000FFFF80B58CB074
:103FD00002AFF8607A601A460B467B8113463B813C
:103FE00000233B62FFF742F87862FB6893F83D30AC
:103FF000DBB2202B40F04B827B6A00931923012215
:104000007F49F86800F09EFB0346002B01D0022395
:104010003EE2FB6893F83C30012B01D1022337E2EA
:10402000FB68012283F83C20FB681B681B6803F0D7
:104030000103012B07D0FB681B681A68FB681B682B
:1040400042F001021A60FB681B681A68FB681B6873
:1040500022F400621A60FB68222283F83D20FB688C
:10406000102283F83E20FB6800221A64FB687A68FD
:104070005A62FB683A895A85FB685B8D9AB2FB6885
:104080001A85FB685F4ADA6279897B6A3A6BF8685D
:1040900000F08AFA0346002B01D00123F8E1FB6807
:1040A0001B8D002B13D10023FB61FB681B685B6930
:1040B000FB61FB681B689B69FB61FB69FB681B6814
:1040C0001A68FB681B6842F400721A60CCE1FB6856
:1040D0001B8D012B1ED1FB681B681A68FB681B68CF
:1040E00022F480621A6072B600BF0023BB61FB68D5
:1040F0001B685B69BB61FB681B689B69BB61BB6933
:10410000FB681B681A68FB681B6842F400721A603F
:1041100062B635E0FB681B8D022B1ED1FB681B6865
:104120001A68FB681B6842F400621A6072B600BF2E
:1041300000237B61FB681B685B697B61FB681B6814
:104140009B697B617B69FB681B681A68FB681B685D
:1041500022F480621A6062B612E0FB681B681A687B
:10416000FB681B6842F480621A6000233B61FB68B5
:104170001B685B693B61FB681B689B693B613B6932
:1041800072E1FB681B8D032B00F21F81FB681B8D06
:10419000012B23D17A6A396BF86800F07DFC034665
:1041A000002B01D0012373E1FB681B681A69FB68CF
:1041B0005B6AD2B21A70FB685B6A5A1CFB685A626F
:1041C000FB681B8D013B9AB2FB681A85FB685B8D0F
:1041D0009BB2013B9AB2FB685A8545E1FB681B8D97
:1041E000022B52D17B6A00933B6B00220649F86890
:1041F00000F0A8FA0346002B08D0012348E100BFD5
:10420000020010000000FFFF0400010072B600BFB2
:10421000FB681B681A68FB681B6842F400721A602E
:10422000FB681B681A69FB685B6AD2B21A70FB688C
:104230005B6A5A1CFB685A62FB681B8D013B9AB291
:10424000FB681A85FB685B8D9BB2013B9AB2FB68E9
:104250005A8562B600BFFB681B681A69FB685B6A17
:10426000D2B21A70FB685B6A5A1CFB685A62FB6820
:104270001B8D013B9AB2FB681A85FB685B8D9BB274
:10428000013B9AB2FB685A85EEE07B6A00933B6B78
:1042900000228149F86800F055FA0346002B01D04E
:1042A0000123F5E0FB681B681A68FB681B6822F4B1
:1042B00080621A6072B600BFFB681B681A69FB68EF
:1042C0005B6AD2B21A70FB685B6A5A1CFB685A625E
:1042D000FB681B8D013B9AB2FB681A85FB685B8DFE
:1042E0009BB2013B9AB2FB685A856C4B1B68DB089A
:1042F0006B4AA2FB03231A0A13469B001344DA00FD
:10430000D31A3B623B6A013B3B623B6A002B18D1EC
:10431000FB6800221A63FB68202283F83D20FB68BB
:10432000002283F83E20FB681B6C43F02002FB68F0
:104330001A6462B600BFFB68002283F83C200123A8
:10434000A6E0FB681B685B6903F00403042BD9D16A
:10435000FB681B681A68FB681B6842F400721A60ED
:10436000FB681B681A69FB685B6AD2B21A70FB684B
:104370005B6A5A1CFB685A62FB681B8D013B9AB250
:10438000FB681A85FB685B8D9BB2013B9AB2FB68A8
:104390005A8562B600BFFB681B681A69FB685B6AD6
:1043A000D2B21A70FB685B6A5A1CFB685A62FB68DF
:1043B0001B8D013B9AB2FB681A85FB685B8D9BB233
:1043C000013B9AB2FB685A854EE07A6A396BF8680D
:1043D00000F062FB0346002B01D0012358E0FB688C
:1043E0001B681A69FB685B6AD2B21A70FB685B6A69
:1043F0005A1CFB685A62FB681B8D013B9AB2FB6832
:104400001A85FB685B8D9BB2013B9AB2FB685A85AB
:10441000FB681B685B6903F00403042B24D1FB6871
:104420001B8D032B07D1FB681B681A68FB681B6890
:1044300022F480621A60FB681B681A69FB685B6A79
:10444000D2B21A70FB685B6A5A1CFB685A62FB683E
:104450001B8D013B9AB2FB681A85FB685B8D9BB292
:10446000013B9AB2FB685A85FB681B8D002B7FF4D9
:1044700088AEFB68202283F83D20FB68002283F889
:104480003E20FB68002283F83C20002300E002234A
:1044900018462837BD4680BD0400010008000020F2
:1044A00089B5F81480B588B002AFF8607A603B60D7
:1044B0000B467B81FB68DB6A7B617B69082B06D03E
:1044C0007B69012B03D07B6913F5803F08D1FB6822
:1044D0001B681A68FB681B6842F480721A600BE064
:1044E000FB681B6B122B07D1FB681B681A68FB6803
:1044F0001B6842F480721A603B6800937B6800225C
:104500004FF00111F86800F01DF90346002B0DD0A3
:10451000FB681B681B6803F48073B3F5807F03D1CD
:10452000FB684FF400721A64032335E0FB681B69D3
:10453000B3F5804F08D17B89DBB21A46FB681B6854
:1045400002F0FE021A611BE07B89DB11DBB203F093
:104550000603DBB263F00F03DAB2FB681B681A6173
:104560003B687A680E49F86800F066F90346002B4C
:1045700001D0012310E07B89DAB2FB681B681A6165
:104580003B687A680749F86800F056F90346002B43
:1045900001D0012300E0002318461837BD4680BD36
:1045A000080001000200010080B588B002AFF86089
:1045B0007A603B600B467B81FB68DB6A7B61FB6852
:1045C0001B681A68FB681B6842F480621A607B698A
:1045D000082B06D07B69012B03D07B6913F5803F44
:1045E00008D1FB681B681A68FB681B6842F480727C
:1045F0001A600BE0FB681B6B112B07D1FB681B6873
:104600001A68FB681B6842F480721A603B6800936A
:104610007B6800224FF00111F86800F093F8034620
:10462000002B0DD0FB681B681B6803F48073B3F587
:10463000807F03D1FB684FF400721A64032379E092
:10464000FB681B69B3F5804F08D17B89DBB243F06F
:104650000103DAB2FB681B681A615FE07B89DB113A
:10466000DBB203F00603DBB263F00F03DAB2FB68E0
:104670001B681A613B687A683049F86800F0DCF81A
:104680000346002B01D0012354E07B89DAB2FB689A
:104690001B681A613B687A682949F86800F0CCF811
:1046A0000346002B01D0012344E000233B61FB685B
:1046B0001B685B693B61FB681B689B693B613B69ED
:1046C000FB681B681A68FB681B6842F480721A60FA
:1046D0003B6800937B6800224FF00111F86800F0FE
:1046E00031F80346002B0DD0FB681B681B6803F4F0
:1046F0008073B3F5807F03D1FB684FF400721A64B6
:10470000032317E07B89DB11DBB203F00603DBB286
:1047100063F00E03DAB2FB681B681A613B687A68C3
:104720000749F86800F088F80346002B01D0012300
:1047300000E0002318461837BD4680BD0800010080
:104740000200010080B584B000AFF860B9603B6042
:104750001346FB7148E03B68B3F1FF3F44D0FEF7DE
:1047600085FC0246BB69D31A3A689A4202D33B6879
:10477000002B39D1BB681B0CDBB2012B0DD1FB68C0
:104780001B685B69DA43BB6813409BB2002B0CBF0C
:1047900001230023DBB21A460CE0FB681B689B690F
:1047A000DA43BB6813409BB2002B0CBF01230023EC
:1047B000DBB21A46FB799A4216D1FB6800221A63D3
:1047C000FB68202283F83D20FB68002283F83E200E
:1047D000FB681B6C43F02002FB681A64FB68002234
:1047E00083F83C20012323E0BB681B0CDBB2012BC8
:1047F0000DD1FB681B685B69DA43BB6813409BB251
:10480000002B0CBF01230023DBB21A460CE0FB682F
:104810001B689B69DA43BB6813409BB2002B0CBF3B
:1048200001230023DBB21A46FB799A4293D000237E
:1048300018461037BD4680BD80B584B000AFF86023
:10484000B9607A603B6071E0FB681B685B6903F4E8
:104850008063B3F5806F23D1FB681B681A68FB681F
:104860001B6842F400721A60FB681B686FF4806278
:104870005A61FB6800221A63FB68202283F83D20FE
:10488000FB68002283F83E20FB681B6C43F00402A7
:10489000FB681A64FB68002283F83C20012367E070
:1048A0007B68B3F1FF3F41D0FEF7E0FB02463B6877
:1048B000D31A7A689A4202D37B68002B36D1BB6840
:1048C0001B0CDBB2012B0CD1FB681B685B69DA4364
:1048D000BB6813409BB2002B14BF01230023DBB243
:1048E0000BE0FB681B689B69DA43BB6813409BB213
:1048F000002B14BF01230023DBB2002B16D0FB6872
:1049000000221A63FB68202283F83D20FB68002206
:1049100083F83E20FB681B6C43F02002FB681A649E
:10492000FB68002283F83C20012321E0BB681B0CBC
:10493000DBB2012B0CD1FB681B685B69DA43BB68F7
:1049400013409BB2002B14BF01230023DBB20BE00A
:10495000FB681B689B69DA43BB6813409BB2002B62
:1049600014BF01230023DBB2002B7FF46DAF0023C3
:1049700018461037BD4680BD80B584B000AFF860E2
:10498000B9607A6034E0F86800F0E3F80346002B81
:1049900001D0012334E0BB68B3F1FF3F28D0FEF71C
:1049A00065FB02467B68D31ABA689A4202D3BB6899
:1049B000002B1DD1FB681B685B6903F08003802B13
:1049C00016D0FB6800221A63FB68202283F83D2082
:1049D000FB68002283F83E20FB681B6C43F020023A
:1049E000FB681A64FB68002283F83C20012307E07F
:1049F000FB681B685B6903F08003802BC3D1002335
:104A000018461037BD4680BD80B584B000AFF86051
:104A1000B9607A6034E0F86800F09BF80346002B38
:104A200001D0012334E0BB68B3F1FF3F28D0FEF78B
:104A30001DFB02467B68D31ABA689A4202D3BB6850
:104A4000002B1DD1FB681B685B6903F00403042B7A
:104A500016D0FB6800221A63FB68202283F83D20F1
:104A6000FB68002283F83E20FB681B6C43F02002A9
:104A7000FB681A64FB68002283F83C20012307E0EE
:104A8000FB681B685B6903F00403042BC3D100239C
:104A900018461037BD4680BD80B584B000AFF860C1
:104AA000B9607A6049E0FB681B685B6903F010033A
:104AB000102B19D1FB681B686FF010025A61FB685C
:104AC00000221A63FB68202283F83D20FB68002245
:104AD00083F83E20FB681A6CFB681A64FB680022AE
:104AE00083F83C20012330E0FEF7C0FA02467B68E1
:104AF000D31ABA689A4202D3BB68002B1DD1FB6857
:104B00001B685B6903F04003402B16D0FB68002252
:104B10001A63FB68202283F83D20FB68002283F89B
:104B20003E20FB681B6C43F02002FB681A64FB68A4
:104B3000002283F83C20012307E0FB681B685B69C7
:104B400003F04003402BAED1002318461037BD467A
:104B500080BD80B483B000AF78607B681B685B6900
:104B600003F48063B3F5806F1BD17B681B686FF41F
:104B700080625A617B6800221A637B68202283F876
:104B80003D207B68002283F83E207B681B6C43F04D
:104B900004027B681A647B68002283F83C200123AE
:104BA00000E0002318460C37BD4680BC704700006B
:104BB00080B586B000AF78607B68002B01D10123FF
:104BC00072E27B681B6803F00103002B00F0878012
:104BD000924B5B6803F00C03042B0CD08F4B5B688B
:104BE00003F00C03082B12D18C4B5B6803F4803369
:104BF000B3F5803F0BD1894B1B6803F40033002BC6
:104C00006CD07B685B68002B68D101234CE27B6829
:104C10005B68B3F5803F06D1804B1B687F4A43F445
:104C2000803313602EE07B685B68002B0CD17B4BDC
:104C30001B687A4A23F480331360784B1B68774AE9
:104C400023F4802313601DE07B685B68B3F5A02F1D
:104C50000CD1724B1B68714A43F4802313606F4B75
:104C60001B686E4A43F4803313600BE06B4B1B6888
:104C70006A4A23F480331360684B1B68674A23F445
:104C8000802313607B685B68002B13D0FEF7EEF97E
:104C9000386108E0FEF7EAF902463B69D31A642B53
:104CA00001D9032300E25D4B1B6803F40033002BA2
:104CB000F0D014E0FEF7DAF9386108E0FEF7D6F933
:104CC00002463B69D31A642B01D90323ECE1534B11
:104CD0001B6803F40033002BF0D100E000BF7B68B9
:104CE0001B6803F00203002B63D04C4B5B6803F09E
:104CF0000C03002B0BD0494B5B6803F00C03082B13
:104D00001CD1464B5B6803F48033002B16D1434B18
:104D10001B6803F00203002B05D07B681B69012B85
:104D200001D00123C0E13D4B1B6823F0F8027B68F2
:104D30005B69DB00394913430B603AE07B681B6910
:104D4000002B20D0364B01221A60FEF78FF9386114
:104D500008E0FEF78BF902463B69D31A022B01D912
:104D60000323A1E12D4B1B6803F00203002BF0D0BD
:104D70002A4B1B6823F0F8027B685B69DB0027493C
:104D800013430B6015E0264B00221A60FEF76EF904
:104D9000386108E0FEF76AF902463B69D31A022B34
:104DA00001D9032380E11D4B1B6803F00203002B94
:104DB000F0D17B681B6803F00803002B3AD07B68B6
:104DC0009B69002B19D0174B01221A60FEF74EF990
:104DD000386108E0FEF74AF902463B69D31A022B14
:104DE00001D9032360E10D4B5B6A03F00203002B42
:104DF000F0D0012000F0CEFA1CE00A4B00221A602D
:104E0000FEF734F938610FE0FEF730F902463B69EE
:104E1000D31A022B08D9032346E100BF0010024039
:104E20000000424280044242924B5B6A03F002035C
:104E3000002BE9D17B681B6803F00403002B00F012
:104E4000A6800023FB758B4BDB6903F08053002B9E
:104E50000DD1884BDB69874A43F08053D361854B82
:104E6000DB6903F08053BB60BB680123FB75824B99
:104E70001B6803F48073002B18D17F4B1B687E4A9C
:104E800043F480731360FEF7F1F8386108E0FEF731
:104E9000EDF802463B69D31A642B01D9032303E1E1
:104EA000754B1B6803F48073002BF0D07B68DB68C4
:104EB000012B06D16F4B1B6A6E4A43F0010313624C
:104EC0002DE07B68DB68002B0CD16A4B1B6A694ABA
:104ED00023F001031362674B1B6A664A23F0040345
:104EE00013621CE07B68DB68052B0CD1614B1B6AED
:104EF000604A43F0040313625E4B1B6A5D4A43F051
:104F0000010313620BE05B4B1B6A5A4A23F0010357
:104F10001362584B1B6A574A23F0040313627B68E1
:104F2000DB68002B15D0FEF7A1F838610AE0FEF728
:104F30009DF802463B69D31A41F28832934201D967
:104F40000323B1E04B4B1B6A03F00203002BEED0AE
:104F500014E0FEF78BF838610AE0FEF787F80246A6
:104F60003B69D31A41F28832934201D903239BE073
:104F7000404B1B6A03F00203002BEED1FB7D012B9B
:104F800005D13C4BDB693B4A23F08053D3617B68FE
:104F9000DB69002B00F08780364B5B6803F00C0365
:104FA000082B61D07B68DB69022B46D1334B002292
:104FB0001A60FEF75BF8386108E0FEF757F8024622
:104FC0003B69D31A022B01D903236DE0294B1B68DF
:104FD00003F00073002BF0D17B681B6AB3F5803FB0
:104FE00008D1244B5B6823F400327B689B6821491D
:104FF00013434B601F4B5B6823F474127B68196A80
:105000007B685B6A0B431B4913434B601B4B0122BC
:105010001A60FEF72BF8386108E0FEF727F8024621
:105020003B69D31A022B01D903233DE0114B1B68C6
:1050300003F00073002BF0D035E0104B00221A6013
:10504000FEF714F8386108E0FEF710F802463B69F5
:10505000D31A022B01D9032326E0064B1B6803F069
:105060000073002BF0D11EE07B68DB69012B07D1B8
:10507000012319E00010024000700040600042422D
:105080000B4B5B68FB60FB6803F480327B681B6A38
:105090009A4206D1FB6803F470127B685B6A9A42FD
:1050A00001D0012300E0002318461837BD4680BD1B
:1050B0000010024080B584B000AF786039607B6832
:1050C000002B01D10123D0E06A4B1B6803F00703DA
:1050D0003A689A4210D9674B1B6823F0070265496A
:1050E0003B6813430B60634B1B6803F007033A688C
:1050F0009A4201D00123B8E07B681B6803F00203E9
:10510000002B20D07B681B6803F00403002B05D024
:10511000594B5B68584A43F4E06353607B681B68F3
:1051200003F00803002B05D0534B5B68524A43F44D
:1051300060535360504B5B6823F0F0027B689B68C0
:105140004D4913434B607B681B6803F00103002B40
:1051500040D07B685B68012B07D1474B1B6803F489
:105160000033002B15D101237FE07B685B68022BA5
:1051700007D1414B1B6803F00073002B09D10123B9
:1051800073E03D4B1B6803F00203002B01D10123A8
:105190006BE0394B5B6823F003027B685B68364940
:1051A00013434B60FDF762FFF8600AE0FDF75EFF16
:1051B0000246FB68D31A41F28832934201D9032395
:1051C00053E02D4B5B6803F00C027B685B689B002F
:1051D0009A42EBD1274B1B6803F007033A689A42C7
:1051E00010D2244B1B6823F0070222493B6813436B
:1051F0000B60204B1B6803F007033A689A4201D00A
:10520000012332E07B681B6803F00403002B08D005
:10521000194B5B6823F4E0627B68DB681649134333
:105220004B607B681B6803F00803002B09D0124B0E
:105230005B6823F460527B681B69DB000E491343F3
:105240004B6000F021F802460B4B5B681B0903F032
:105250000F030A49CB5C22FA03F3094A1360094B96
:105260001B681846FDF7C0FE002318461037BD46E0
:1052700080BD00BF002002400010024044F400083E
:10528000080000200C00002080B487B000AF00238D
:10529000FB600023BB6000237B6100237B60002355
:1052A0003B611E4B5B68FB60FB6803F00C03042B47
:1052B00002D0082B03D027E0194B3B6127E0FB68A5
:1052C0009B0C03F00F03174AD35C7B60FB6803F46D
:1052D0008033002B10D0114B5B685B0C03F0010393
:1052E000114AD35CBB607B680D4A03FB02F2BB68CA
:1052F000B2FBF3F37B6104E07B680C4A02FB03F32F
:105300007B617B693B6102E0054B3B6100BF3B6910
:1053100018461C37BD4680BC704700BF00100240D5
:1053200000127A005CF400086CF4000800093D00EB
:1053300080B400AF024B1B681846BD4680BC704766
:105340000800002080B500AFFFF7F2FF0246054BD2
:105350005B681B0A03F007030349CB5C22FA03F3E3
:10536000184680BD0010024054F4000880B500AF1C
:10537000FFF7DEFF0246054B5B68DB0A03F007031D
:105380000349CB5C22FA03F3184680BD00100240AB
:1053900054F4000880B485B000AF78600A4B1B68F5
:1053A0000A4AA2FB03235B0A7A6802FB03F3FB6051
:1053B00000BFFB685A1EFA60002BF9D100BF00BF86
:1053C0001437BD4680BC704708000020D34D6210E2
:1053D00080B582B000AF78607B68002B01D10123DB
:1053E00076E07B685B6A002B08D17B685B68B3F56D
:1053F000827F09D07B680022DA6105E07B680022A9
:105400001A617B6800225A617B6800229A627B687D
:1054100093F85130DBB2002B06D17B68002283F871
:1054200050207868FDF788F97B68022283F85120C4
:105430007B681B681A687B681B6822F040021A6050
:105440007B685B6803F482727B689B6803F40443A7
:105450001A437B68DB6803F400631A437B681B69AB
:1054600003F002031A437B685B6903F001031A43EC
:105470007B689B6903F400731A437B68DB6903F064
:1054800038031A437B681B6A03F0800342EA030176
:105490007B689B6A03F400527B681B680A431A60AE
:1054A0007B689B691A0C7B681B6802F004025A60D7
:1054B0007B681B68DA697B681B6822F40062DA612A
:1054C0007B6800225A657B68012283F85120002303
:1054D00018460837BD4680BD80B588B000AFF8607B
:1054E000B9603B601346FB80FDF7C0FDF861FB88A7
:1054F0007B83FB6893F85130DBB2012B01D0022390
:105500002AE1BB68002B02D0FB88002B01D10123CC
:1055100022E1FB6893F85030012B01D102231BE1FB
:10552000FB68012283F85020FB68032283F8512096
:10553000FB6800225A65FB68BA681A63FB68FA8840
:105540009A86FB68FA88DA86FB6800229A63FB6811
:1055500000229A87FB680022DA87FB6800225A64DF
:10556000FB6800221A64FB689B68B3F5004F0FD1FB
:10557000FB681B681A68FB681B6822F040021A600F
:10558000FB681B681A68FB681B6842F480421A605B
:10559000FB681B681B6803F04003402B07D0FB68C7
:1055A0001B681A68FB681B6842F040021A60FB68BF
:1055B000DB68B3F5006F52D1FB685B68002B02D04B
:1055C0007B8B012B45D1FB681B6B1A88FB681B6822
:1055D000DA60FB681B6B9A1CFB681A63FB68DB8E46
:1055E0009BB2013B9AB2FB68DA8632E0FB681B682B
:1055F0009B6803F00203022B12D1FB681B6B1A8815
:10560000FB681B68DA60FB681B6B9A1CFB681A63FB
:10561000FB68DB8E9BB2013B9AB2FB68DA8618E02E
:10562000FDF724FD0246FB69D31A3A689A4203D873
:105630003B68B3F1FF3F02D13B68002B09D1FB6807
:10564000012283F85120FB68002283F850200323B5
:1056500082E0FB68DB8E9BB2002BC7D153E0FB6876
:105660005B68002B02D07B8B012B47D1FB681A6B48
:10567000FB681B680C3312781A70FB681B6B5A1C92
:10568000FB681A63FB68DB8E9BB2013B9AB2FB6836
:10569000DA8633E0FB681B689B6803F00203022B89
:1056A00013D1FB681A6BFB681B680C3312781A70F5
:1056B000FB681B6B5A1CFB681A63FB68DB8E9BB292
:1056C000013B9AB2FB68DA8618E0FDF7CFFC024690
:1056D000FB69D31A3A689A4203D83B68B3F1FF3F9B
:1056E00002D13B68002B09D1FB68012283F85120CD
:1056F000FB68002283F8502003232DE0FB68DB8E3B
:105700009BB2002BC6D1FA693968F86800F05AFAE2
:105710000346002B02D0FB6820225A65FB689B6879
:10572000002B0AD100237B61FB681B68DB687B616F
:10573000FB681B689B687B617B69FB68012283F8BF
:105740005120FB68002283F85020FB685B6D002B22
:1057500001D0012300E0002318462037BD4680BD5C
:1057600080B58AB000AFF860B9607A607B800123B1
:105770007B62FDF77BFC3862FB6893F85130FB7766
:10578000FB685B68BB617B88FB82FB7F012B0CD0D5
:10579000BB69B3F5827F06D1FB689B68002B02D101
:1057A000FB7F042B01D002237FE1BB68002B05D0D7
:1057B0007B68002B02D07B88002B01D1012374E190
:1057C000FB6893F85030012B01D102236DE1FB6897
:1057D000012283F85020FB6893F85130DBB2042B90
:1057E00003D0FB68052283F85120FB6800225A652C
:1057F000FB687A689A63FB687A88DA87FB687A883C
:105800009A87FB68BA681A63FB687A88DA86FB684D
:105810007A889A86FB6800221A64FB6800225A6420
:10582000FB681B681B6803F04003402B07D0FB6834
:105830001B681A68FB681B6842F040021A60FB682C
:10584000DB68B3F5006F7ED1FB685B68002B02D08C
:10585000FB8A012B6CD1FB681B6B1A88FB681B68E9
:10586000DA60FB681B6B9A1CFB681A63FB68DB8EB3
:105870009BB2013B9AB2FB68DA8659E0FB681B6871
:105880009B6803F00203022B1BD1FB68DB8E9BB2EB
:10589000002B16D07B6A012B13D1FB681B6B1A8877
:1058A000FB681B68DA60FB681B6B9A1CFB681A6359
:1058B000FB68DB8E9BB2013B9AB2FB68DA86002361
:1058C0007B62FB681B689B6803F00103012B19D105
:1058D000FB68DB8F9BB2002B14D0FB681B68DA6877
:1058E000FB689B6B92B21A80FB689B6B9A1CFB68EF
:1058F0009A63FB68DB8F9BB2013B9AB2FB68DA8745
:1059000001237B62FDF7B2FB02463B6AD31A3A6B76
:105910009A420DD83B6BB3F1FF3F09D0FB680122DF
:1059200083F85120FB68002283F850200323BCE059
:10593000FB68DB8E9BB2002BA0D1FB68DB8F9BB298
:10594000002B9BD182E0FB685B68002B02D0FB8AB6
:10595000012B71D1FB681A6BFB681B680C33127842
:105960001A70FB681B6B5A1CFB681A63FB68DB8EA2
:105970009BB2013B9AB2FB68DA865DE0FB681B686C
:105980009B6803F00203022B1CD1FB68DB8E9BB2E9
:10599000002B17D07B6A012B14D1FB681A6BFB68B4
:1059A0001B680C3312781A70FB681B6B5A1CFB685F
:1059B0001A63FB68DB8E9BB2013B9AB2FB68DA8606
:1059C00000237B62FB681B689B6803F00103012BCB
:1059D00019D1FB68DB8F9BB2002B14D0FB681B68CE
:1059E000DA68FB689B6BD2B21A70FB689B6B5A1C1F
:1059F000FB689A63FB68DB8F9BB2013B9AB2FB6842
:105A0000DA8701237B62FDF731FB02463B6AD31A3A
:105A10003A6B9A4203D83B6BB3F1FF3F02D13B6B29
:105A2000002B09D1FB68012283F85120FB6800227A
:105A300083F85020032338E0FB68DB8E9BB2002BF9
:105A40009CD1FB68DB8F9BB2002B97D13A6A396BF4
:105A5000F86800F0B7F80346002B08D0FB68202256
:105A60005A65FB68002283F8502001231DE0FB6883
:105A70009B68002B0AD100233B61FB681B68DB6835
:105A80003B61FB681B689B683B613B69FB680122CB
:105A900083F85120FB68002283F85020FB685B6D7F
:105AA000002B01D0012300E0002318462837BD4613
:105AB00080BD000080B588B000AFF860B9603B6081
:105AC0001346FB71FDF7D2FA0246BB6A9B1A3A688D
:105AD0001344FB61FDF7CAFAB861394B1B685B01DF
